:100000000C949B010C94B8010C94B8010C94AA199F
:100010000C94B8010C94B8010C94B8010C94B8017C
:100020000C94B8010C94B8010C9470200C944421E9
:100030000C94B51B0C94B8010C94B8010C94B80145
:100040000C94B8010C94B8010C94B8010C94B8014C
:100050000C94B8010C94581C0C94B8010C94B80181
:100060000C94B8010C94B8010C94B8010C94B8012C
:100070000C94B8010C94B8010C94B8010C94B8011C
:100080000C94B8010C94B8010C94B8010C94B8010C
:100090000C94B8010C94B8010C94B8010C94B801FC
:1000A0000C94B8010C94B8010C94B801165C1E00B5
:1000B0001F002000210022002B0014001A0008005D
:1000C00015001700E00004001600070009000A00F0
:1000D000E1001D001B000600190005000000E30000
:1000E000E2002C0001512F002D00270026002500E2
:1000F000240023003100130012000C0018001C0023
:10010000340033000F000E000D000B002E003800ED
:100110003700360010001100000001514C002A0089
:100120002800300035003A003B003C003D003E0016
:100130000100C35CC45CCE5C00000000010004014F
:10014000000000000901000001001D011B01060163
:100150001901000000000100010001000100000081
:10016000440043004200410040003F0045000000C1
:1001700049004B004E0046004D004A004F0052001F
:10018000510050000000AE00AD00A800AA00A90078
:10019000000001004C012A010100000000010101E2
:1001A0000101010101010202020202020202020334
:1001B0000303030303030304040404040404050504
:1001C00005050506060606060707070707080808C7
:1001D00008090909090A0A0A0B0B0B0C0C0C0D0D76
:1001E0000D0E0E0E0F0F0F1010111111121213130E
:1001F0001414151516161717181819191A1A1B1B87
:100200001C1D1D1E1E1F20202122222324242526E2
:1002100026272829292A2B2C2D2D2E2F303132321A
:10022000333435363738393A3B3C3D3E3F40414226
:10023000434445464748494A4C4D4E4F505153540C
:10024000555658595A5B5D5E5F61626465666869C0
:100250006B6C6D6F7072737577787A7B7D7E808240
:10026000838587888A8C8E8F91939596989A9C9E89
:10027000A0A2A3A5A7A9ABADAFB1B3B5B7BABCBE99
:10028000C0C2C4C6C9CBCDCFD1D4D6D8DBDDDFE266
:10029000E4E7E9EBEEF0F3F5F8FAFDFF0E034C00AE
:1002A00069006C00790035003800000010036C0014
:1002B00069006C00690075006D00730000000403A4
:1002C000090409022200010100A0FA09040000014A
:1002D00003010100092111010001224000070581ED
:1002E000030800011201000200000008D8042DEBF1
:1002F00000010102000105010906A101050719E03D
:1003000029E71500250195087501810295017508F9
:1003100081010507190029FF150026FF00950675C4
:1003200008810005081901290595057501910295B7
:100330000175039101C011241FBECFEFDAE0DEBFCB
:10034000CDBF11E0A0E0B1E0E8E8F7E402C005901D
:100350000D92A434B107D9F722E0A4E4B1E001C0C2
:100360001D92A337B207E1F70E94C7120C94AC2389
:100370000C94000023E042E061E00E940F02089527
:1003800081E0089581E008950E94C00108950895D4
:100390000E94C7010895A5E0B0E0E1EDF1E00C9402
:1003A000262349835A8330914B0189819A813111E7
:1003B00019C0662399F0222389F00E942107182F83
:1003C000682F89819A810E94FD0669817A81812F37
:1003D0000E945E0D2596E3E00C9442230E940F07D5
:1003E000182FF3CF0E94210769817A81F1CFFC0198
:1003F000262F408151816281738184810E94CB01CB
:10040000089581E00895CF93DF93EC0160E00E94AE
:10041000F701BE010E94C801DF91CF910895E1E08C
:10042000F0E0DF0102C0AA0FBB1F6A95E2F7BD0131
:10043000DF0102C0AA0FBB1F4A95E2F7AD01462BB0
:10044000572B02C0EE0FFF1F2A95E2F79A012823CF
:1004500039232417350719F48E2B9F2B0895E09527
:10046000F0958E239F2308950E94C50E08950E9443
:10047000C90E089508950E94CB050E943A022FEFFD
:1004800084E39CE0215080409040E1F700C00000F0
:1004900008950E943B020E947C1C08950E943B022A
:1004A0000E948D1C08950F931F93CF93DF938C01AF
:1004B00061E00E94F701EC01B8010E94C4018111C2
:1004C00006C080E0DF91CF911F910F910895B80190
:1004D000CE010E94B8188823A1F3B801CE010E9472
:1004E000BC16882371F3B801CE010E942A18882314
:1004F00041F3B801CE010E94FF15882311F3F801E2
:100500008281882361F0CB35FDE5DF0701F158F4E6
:10051000C115ECE5DE0791F0CF3DDC4591F0C80157
:100520000E94C201CFCFCD358DE5D80769F090F09C
:10053000C83ADD45A1F70E944E02C3CF0E9449028E
:10054000C0CF0E94C20BF7CF0E94070BE8CF0E94DA
:10055000110BE5CF0E94150BE2CF0E94921B0E9467
:10056000CE020E944A1408950E94D2020E94B7153A
:100570000E94971B089508950E94BB02089581E090
:1005800008950E94BF0208950895CF93C82F0E9436
:10059000BC028C2F0E94C102CF91089580E00E947E
:1005A000C50208950E94D01A0E94C5020895CF93F3
:1005B0000E94D01AC82F809146018C1779F0C09301
:1005C00046010E94211C609347017093480180936B
:1005D000490190934A018C2F0E94C502CF91089542
:1005E000ABE0B0E0E6EFF2E00C9427234F835887AE
:1005F00069877A878B8761110E94520A1E821D8249
:1006000085E0FE013796DE01119601900D928A95E4
:10061000E1F78C819D81892B61F449815A816B813D
:100620007C818D819E810E947B092B96E2E00C9457
:10063000432389819A8189238F3F79F3CE010196E3
:100640000E9401028111E9CFF0CFFC0180819181EC
:100650000E9453070895CF93C82F8823B9F08CEFD9
:100660008C0F813AA8F46C2F8091000190910101C8
:100670000E942D1B882329F08C2F0E94120A0E94B1
:10068000730A8C2F0E940A0A0E94730ACF91089560
:1006900080E28C0F8830D0F7C77081E001C0880FEE
:1006A000CA95EAF70E94350AEFCF882339F19CEF0B
:1006B000980F913A28F40E94120A0E94730A089532
:1006C00090E2980F983050F4877091E001C0990F34
:1006D0008A95EAF7892F0E943B0AEFCF9BE5980F96
:1006E000933028F490E080E00E94EF1A0895885A31
:1006F000873120F490E080E00E94051B08951F934D
:10070000CF93DF93182FEB010E942B03209739F42E
:10071000812F0E945503DF91CF911F9108958FE99A
:100720009FE00197F1F700C000002197EFCF70E044
:1007300060E0893311F460E570E00E947F03089562
:10074000882321F00E94350A0E94730A08958823A5
:1007500021F00E943B0A0E94730A0895B0E0A0E0D5
:10076000E4EBF3E00C9420236C01D62FC72FFC019F
:100770001281F580F2949FE0F9220E942B0AE82E64
:100780008823B9F0E12E1123A1F08C2F807F8034D3
:1007900021F080E28D0F8830D0F08091220282FF1C
:1007A00016C082E00E94D60A0E942B0A91E0E82E31
:1007B000E926BC2EB2948FE0B822FBE0FB1508F4CA
:1007C00068C0EB2DF0E0E255FC4D0C941123E12CB8
:1007D000F0CF0C2F0F70C07F11F00295007F112316
:1007E00099F0002359F080E28D0F883010F0D1117C
:1007F00007C0802F0E94350A0E94730A8D2F41C0C6
:10080000802F0E94450AF8CF8D2F0E9455030023A8
:1008100009F43FC080E28D0F883010F0D11104C080
:10082000802F0E943B0A03C0802F0E944B0A0E9427
:10083000730A2FC00C2F0F70C07FC03211F00295C9
:10084000007FDD2381F0D13009F463C0112309F466
:100850006DC0FF2009F463C0F601858180FFCECF13
:100860008F7085835CC08091220282FD33C011238A
:1008700059F0002329F0802F0E94350A0E94730A44
:1008800080E00E942B0305C080E00E945503011107
:10089000C7CFEB2DE850FF0B349720F40E94D01AFD
:1008A0000E94C502EE2089F00E94270A80FD0DC03B
:1008B000F60112820E94210A0E945B06C6010E9474
:1008C00097050E94210A0E946B06CDB7DEB7E9E0CA
:1008D0000C943C23112389F0F11006C00E94550AA4
:1008E000802B0E94A003D5CF21E0F212F7CF0E9407
:1008F000550A802B0E945C0ACCCFF11006C00E94E2
:10090000690A802F0E94A703C4CF31E0F31609F2D1
:10091000F6CF112331F085E08F1508F4BACF802F80
:10092000E0CF94E09F1508F4B4CFEBCFFF2049F35C
:10093000D93349F4FFEF27EE33E0F1502040304047
:10094000E1F700C000008D2F0E945503A2CF8C2F2D
:100950008370A1F511119DCF4D2F4295469547709B
:10096000440F440F2D2F2F7030E0042E02C0220FB1
:10097000331F0A94E2F790E080E0D4FF09C08FE0D3
:1009800090E002C0880F991F4A95E2F780959095F4
:10099000C695C695C370822B932BC23049F058F48C
:1009A000C13019F00E942C0674CF0E94230671CF2B
:1009B0000E9435066ECF0E9420066BCF86951123CC
:1009C00011F08C2F8170882309F463CF4D2F42954D
:1009D00046954770440F440F2D2F2F7030E0042EA2
:1009E00002C0220F331F0A94E2F790E080E0D4FFA8
:1009F00009C08FE090E002C0880F991F4A95E2F786
:100A000080959095C695C695C370822B932BC23066
:100A100049F058F4C13019F00E9496063ACF0E946E
:100A20008D0637CF0E949F0634CF0E94410631CFFA
:100A3000CF70112329F08C2F0E945B068D2F51CF90
:100A40008D2F0E94A7038C2F0E946B0622CFD23FCE
:100A500051F160F4D03FB9F0D13F81F0112309F496
:100A600049C0F110CBCE8C2F8F7121C0D33F11F133
:100A7000D43FA1F78091220282FD26C08C2F8F7176
:100A8000112311F314C0112349F084E08F1508F4E9
:100A900000CF8C2F8F710E947D06FBCE95E09F15B5
:100AA00008F4F7CEF6CF8C2F8F711111CDCF0E94A5
:100AB0005B06EFCE112329F08C2F8F710E944F0619
:100AC000E8CE0E944A06E5CE112349F0CF718C2F63
:100AD0000E945B0663E08C2F0E94B80ADACE81E0A8
:100AE0000E94D60AE1E0EF1508F0D3CE82E00E9422
:100AF000D60ACFCEF1101CCF8C2F8F71A5CF0F93BC
:100B00001F93CF93DF93EC01688179818A810E94E2
:100B10005E078C010E94A8060E941F06B801CE0144
:100B20000E94AE03DF91CF911F910F910895CF9353
:100B3000DF93EC018B819C81892B29F0888199813D
:100B400089238F3F51F4DF91CF910895CE010E9408
:100B50007F05CE010E940302F6CFCE010E94530210
:100B60008111F4CF0E942B0A882369F38A8188239C
:100B700051F38091220282FFE6CF82E00E94D60AE2
:100B8000E2CF0E94520A0E94730A08950E941A0A34
:100B90000E94C10508950E94420A0E94C605089558
:100BA00092959F70963091F058F4925F9F709230BA
:100BB00058F4803F19F030F4883E30F481E0089515
:100BC0009A5FF4CF843FD1F380E00895883EB0F37C
:100BD000813FD1F7F3CFFC0183819481892B29F0E8
:100BE0008081918189238F3F11F480E00895808175
:100BF00091810E9453070E94D0050895A5E0B0E0BE
:100C0000E4E0F6E00C9427232596E2E00C944323DD
:100C1000A6E0B0E0EEE0F6E00C9427232696E2E0B2
:100C20000C94432308950E94120608950E9413060F
:100C300090936F0180936E010E94C10508950895FD
:100C40000E941606089520916E0130916F01822B4B
:100C5000932B0E941606089520916E0130916F012A
:100C6000822393230E941606089520916E013091ED
:100C70006F01822793270E94160608950E94BA01E9
:100C800008950E943E0690936D0180936C010E942E
:100C9000C105089590E080E00E944106089521E09A
:100CA00030E0A90102C0440F551F8A95E2F7CA013E
:100CB0000E944106089521E030E002C0220F331F58
:100CC0008A95E2F780916C0190916D01822B932BB4
:100CD0000E944106089521E030E002C0220F331F38
:100CE0008A95E2F72095309580916C0190916D0185
:100CF000822393230E944106089521E030E002C040
:100D0000220F331F8A95E2F780916C0190916D015B
:100D1000822793270E944106089520916C0130910B
:100D20006D01822B932B0E944106089520916C0146
:100D300030916D01822393230E94410608952091F2
:100D40006C0130916D01822793270E94410608951E
:100D50000895262F277091E001C0990F2A95EAF790
:100D600023E0769567952A95E1F7660F771F660F62
:100D7000771FFA01E60FF71F50E040E0682F70E0A0
:100D80008191DF0111979B01042E02C036952795B2
:100D90000A94E2F7217021952827292328272C93EC
:100DA0004F5F5F4F4430510559F70895A82FA77042
:100DB00023E0969587952A95E1F7880F991F880F6C
:100DC000991FFB01E80FF91F50E040E080E02191FE
:100DD00030E00A2E02C0369527950A94E2F721707A
:100DE0003327042E01C0220F0A94EAF7822B4F5FAB
:100DF0005F4F4430510559F70895262F9A3070F40B
:100E0000863060F4682F70E086E0989F600D711D59
:100E100011244CE451E0822F0E94A9060895292F45
:100E20009A3068F4863058F490E06CE471E036E073
:100E3000239F800D911D11240E94D606089580E005
:100E40000895B0E0A0E0E7E2F7E00C9420237C01F5
:100E500000916C0110916D0180916E0190916F0174
:100E6000082B192BCFE0D0E0CC24C394D12CBC2E7E
:100E7000C6010C2E02C0880F991F0A94E2F7802346
:100E80009123892B49F4219790F7B12C8B2DCDB765
:100E9000DEB7E9E00C943C23B7018C2F0E94790D5A
:100EA000019789F3F3CFCF93DF93EC010E942107E1
:100EB000BE010E94790DDF91CF9108951F93CF93CA
:100EC000DF93EB0190914B01992339F0CB010E9404
:100ED0005307DF91CF911F910895882369F0CB01CB
:100EE0000E942107182F682FCE010E94FD06BE0127
:100EF000812F0E94790DEDCFCB010E940F07182F93
:100F0000F6CF1F93CF93DF93C091700116E08091CD
:100F100071018C1304C0DF91CF911F910895D0E02F
:100F20001C9FF0011D9FF00D1124EE58FE4F4081D3
:100F3000518162817381848195810E940806219686
:100F4000C770E5CF4091A2015091A3016091A40127
:100F50007091A5018091A6019091A7010E940806B9
:100F600008951F93CF93DF938091A701807F09F0AD
:100F700049C08091A401882309F444C08091700184
:100F8000C09171016091A2017091A301A091A5018E
:100F9000B091A601D62FD72316E0C81799F190E09B
:100FA000109711F0DF3F19F401968770F6CF189F64
:100FB0009001199F300D1124F901EE58FE4F418127
:100FC0004713F2CF40814613EFCF42814111ECCF5E
:100FD000438154814A1B5B0B4436510528F78091AD
:100FE000A7018F7080618093A701F901E958FE4F36
:100FF00080818F708061808382EA91E00E949705F2
:101000000E948107DF91CF911F910895A1E1B0E087
:10101000ECE0F8E00C941F238C0185E0F801DE0180
:101020001D9601900D928A95E1F7F801E28082EA1F
:10103000C82E81E0D82E6091A5017091A60161159E
:10104000710509F43CC19091A2012091A301892F5F
:1010500082238F3F09F433C140815181A380B48042
:10106000F090A401F501E61BF70BFF2009F4F8C08E
:101070008091A701382F307FE436F10508F0B1C028
:1010800031116DC0FE2C251316C0941314C0E1104D
:1010900012C08F7080618093A7010E94A207C601D1
:1010A0000E9497058091A701F80185838F2D619695
:1010B000EAE00C943B23A114B10429F0842F85238A
:1010C0008F3F09F015C180E0F82FF170DF2E80FF0F
:1010D0003CC0809170012091710136E0821315C0EF
:1010E0004D875E878D859E850E945307292F229507
:1010F0002F702230F0F0243018F59F70F1F0F801D5
:101100009581907FD1F4D12C1EC090E0389FF001E2
:10111000399FF00D1124EE58FE4F6181651306C012
:101120006081641303C06281E6120FC0019687706C
:10113000D5CF9F7011F0882331F3805E883018F38B
:10114000C8010E949705FD2CB1CFEE2009F4AECF67
:101150008091A70181608093A701F12CA7CF25136F
:1011600014C0941312C0E11010C0F8018583C801A7
:101170000E94970586E0F801A2EAB1E001900D9285
:101180008A95E1F70E94A20791CFC8010E94EB0562
:10119000882319F1EE2009F18091A701803270F0C7
:1011A0002091A2013091A30138872F831986BB8635
:1011B000AA868C87CE0107960E94970586E0F801E3
:1011C000A2EAB1E001900D928A95E1F70E94B10781
:1011D0000E94A207FF24F39469CFC8010E949705DB
:1011E000F9CF311113C07A2DB98AA88A6E2D898959
:1011F0000E94FE0582EA91E00E94970586E0F601D2
:1012000011928A95E9F70E94A207A7CF25130FC074
:1012100094130DC0E1100BC0F8018583C8010E9432
:10122000970586E0F60111928A95E9F73FCFC8014C
:101230000E94EB05882389F2EE2079F28091A701C4
:10124000803208F4BBCF2091A2013091A3013A83F0
:1012500029831B82BD82AC828E83CE010196ACCFE6
:10126000E436F105F8F4FE2CEE2009F4B6CF251390
:101270000BC0941309C086E0F801A2EAB1E0019026
:101280000D928A95E1F712CFC8010E94EB058111FA
:1012900095CF8091A70181608093A701C8010E942A
:1012A000970504CF7A2DB98AA88A6E2D89890E9464
:1012B000FE0586E0F60111928A95E9F763CFEE20EC
:1012C00009F48BCFC8010E94EB05F82E882309F49E
:1012D00084CF86E0F801A2EAB1E001900D928A95F0
:1012E000E1F782EA91E00E9425030E94B1074ACF0C
:1012F00081E08E25E9CEACE0B0E0E1E8F9E00C94C5
:1013000026234F83588769877A878B879C87CE01EE
:1013100007960E940608882369F08A859B85892B99
:1013200039F04F815885842F85238F3F09F06BC09A
:1013300016E05FC086E0FE013796DE01119601904F
:101340000D928A95E1F78A859B85892B89F38F8198
:10135000988589238F3F61F32091710130E0C901A5
:10136000019687709927409170014817190671F40A
:101370000E94CB05109271011092700186E0E2EAA2
:10138000F1E0DF011D928A95E9F7D2CF96E0929FB6
:10139000D001939FB00D1124AE58BE4FFE0131967F
:1013A00001900D929A95E1F7809371010E94810757
:1013B000BFCF819FC00111248E589E4F0E94060806
:1013C0008823E9F0E09170011E9FF0011124EE588E
:1013D000FE4F4081518162817381848195810E9499
:1013E00008068091700190E001968770992780939C
:1013F000700180917001909171018913DACF2C9660
:10140000E3E00C94422369857A858B859C850E9454
:1014100008068ECF682F80910001909101010E94F3
:10142000631B0895682F80910001909101010E9433
:10143000661B089580910001909101010E94691B33
:1014400008958091B0018595859585950895809141
:10145000B001877008959091B001977081E009F410
:1014600080E008958091BB0108959091BB01892B84
:101470008093BB01089580959091BB019823909330
:10148000BB0108951092BB0108959091BA01892B78
:101490008093BA01089580959091BA019823909312
:1014A000BA0108951092BA0108958091B10108958A
:1014B00008950E94580A08959091220292FF08C050
:1014C0009091B101981721F08093B1010E94590ABF
:1014D00008958091B101882329F01092B10180E034
:1014E0000E94590A0895CF93DF93E0910001F09193
:1014F00001018091BB018083E0910001F091010125
:1015000080819091BA01892B80839091B1019923B8
:1015100081F0E0910001F09101018081892B8083AD
:1015200080910001909101010E941B1B81110E947A
:10153000690AC0910001D091010148E050E068EAD9
:1015400071E0CE010E944E23892B59F088E0FE0104
:10155000A8EAB1E001900D928A95E1F7CE010E94D0
:10156000E41ADF91CF91089508950E94B40A089576
:101570009091220292FF11C098E0899F900111245E
:10158000622B6093B0010E945B068091B00185954B
:10159000859585950E94B50A08950E945B06089579
:1015A0001092B00180E00E94B50A08959091B001B8
:1015B000809589238093B001282F277091F4282FDC
:1015C000082E000C330B9217130659F0909122024B
:1015D00092FF07C08595859585950E946B060E94B0
:1015E000D00A08959091220292FB222720F9281711
:1015F00069F080FB92F990932202809121029091F0
:1016000022020E943C0B82E00E94D60A089580913B
:10161000220282FB882780F991E089270E94F20A42
:10162000089581E00E94F20A089580E00E94F20A83
:10163000089590E080E00E94722321E0883E9E4F52
:1016400009F020E0822F089582E090E00E94642358
:10165000089583E090E00E9464230895CF9384E08E
:1016600090E00E946423C82F82E290E00E946423ED
:10167000982F8C2FCF910895CF93C92F682F84E096
:1016800090E00E9478236C2F82E290E00E94782301
:10169000CF910895AB01BC018FE090E00E948A23B6
:1016A0000895AB01BC0183E190E00E948A23089574
:1016B00060E070E0CB010E94510B089560E070E0A3
:1016C000CB010E944A0B0E94580B089568EE7EEFF2
:1016D00090E080E00E94962360E082E090E00E942B
:1016E000782360E083E090E00E94782310926F01FD
:1016F00010926E0160E084E090E00E94782364E044
:1017000082E290E00E94782360E085E090E00E9411
:10171000782360E086E090E00E9478236FEF87E016
:1017200090E00E94782340E050E0BA0188E090E029
:101730000E948A2360E08DE090E00E94782340E0E0
:1017400050E0BA0188E190E00E948A2360E087E1DE
:1017500090E00E94782340E050E0BA018CE190E0F4
:101760000E948A2370E060E080E290E00E9496236D
:1017700040E050E0BA0188E190E00E948A230E9494
:101780005E0B08950E94660B0895682F8EE090E02E
:101790000E94782308950E94211C6093CC017093CD
:1017A000CD018093CE019093CF016093C8017093D7
:1017B000C9018093CA019093CB01089508950895BB
:1017C0000E94DF0B089508950E94E30B089583EAB9
:1017D0009EE00E94C61A0E94DE0B0E94E00B089554
:1017E0000E946B100895089508950E94F30B0E94C3
:1017F000F40B08950E94A60E0E94C40208950E9450
:101800000C1C0E94630E0E9486100E94CC0F0E9446
:10181000FA0B0E94A4160E9478150E949A100E944A
:10182000E40B0895AAE0B0E0E8E1FCE00C941F238B
:101830000E94EF0F8EEBA82E81E0B82E750110E00C
:10184000F70101917F01812F0E94CC0E1F5F1A309A
:1018500009F440C00817A1F38091D00181FD0E94D6
:10186000D20E0E94F00BC82E10E0812F0E94CC0EE9
:10187000082FF50181915F01081731F1D02ED8268C
:10188000F12CEE24E3948D2D8E21B1F0CC20A1F02B
:10189000FE821F8391E0802F8E2109F490E09887CB
:1018A0000E94151C8160782F9A8789874E815F81FD
:1018B00068858A850E94F002F394EE0CF6E0FF1230
:1018C000E2CFF501319700831F5F1A3071F60E9455
:1018D000CB0B20C00813C0CF0E94151C8C01809137
:1018E000BC019091BD0108171907A1F08FEF898302
:1018F0008A831B820E94151C8160782F9D838C83B4
:1019000049815A816B818D810E94F0021093BD0143
:101910000093BC010E946B100E94D7022A96EAE055
:101920000C943B23CF93DF930E947E0DEC01811535
:1019300023E5920790F5811532E5930708F08DC0F5
:10194000811540E29407C8F4C11581E0D80788F4F6
:10195000C53AD10548F4C430D10558F4C130D10599
:1019600041F0D0E0C0E005C0CE01805E910908974B
:10197000C0F7CE01DF91CF910895811521E592073F
:1019800008F066C0811530E5930708F04EC0811558
:10199000904438F3DF70D06AECCFC11586E5D807E4
:1019A000F0F4C11525E5D20708F06FC0C11534E584
:1019B000D30708F065C0CE018370992721E030E09D
:1019C00002C0220F331F8A95E2F7C695C69540E202
:1019D000C49FE0011124C22BD32BDA68CACFC115F2
:1019E0004AE5D40778F4C11589E5D80708F058C04E
:1019F000C11528E5D20708F4B4CFDC2FCC27C06F7F
:101A0000D06AB7CFCE0190568115904208F0A9CF89
:101A10008D2F8F710E94200E90E0982F88278827A5
:101A20009F719C012C2BE90139C08370992721E01B
:101A300030E002C0220F331F8A95E2F7C695C695A3
:101A400040E2C49FE0011124C22BD32BDD6891CF6B
:101A5000D82FCC27C16FD06A8CCF8370992721E013
:101A600030E002C0220F331F8A95E2F7C695C69573
:101A700080E2C89FE0011124C22BD32BDC6879CF10
:101A8000DC2FCC27C46FD06A74CF8C2F0E94200E1D
:101A9000C82FD0E0DC2FCC27CC27DF71D06269CFF4
:101AA0008C2F8F700E94200E34E0D695C7953A9502
:101AB000E1F7CF709C2FEC01D0695BCF972F7A3084
:101AC000A8F4663098F470E026E0929F600D711DD6
:101AD0001124FB019CE3899FE00DF11D1124EE0F01
:101AE000FF1FE455FF4F85919491089580E090E0A9
:101AF00008950E945E0D0E94920C0895823891050F
:101B0000B9F1B0F48133910509F47DC048F489320C
:101B1000910509F46DC08A32910509F47BC00895DE
:101B20008533910509F45FC08933910509F1089562
:101B3000833E9105D9F138F4803E910529F1823E2A
:101B4000910579F10895863E9105D9F1873E910579
:101B500009F43EC0843E910541F52091220221FF07
:101B600024C08091210284FD19C087EE90E0089581
:101B700020912102237009F05AC02091220223FFF4
:101B800014C089E290E008952091210220FD38C020
:101B90003091220230FF09C024FF43C090E080E072
:101BA00008952091210222FDF7CF0895209121026E
:101BB00022FD3AC03091220230FD39C024FFF5CF1A
:101BC000EDCF2091210223FFF0CF24FDE7CFCDCF31
:101BD0002091210223FD2EC03091220231FFEECF51
:101BE00084EE90E008952091210225FFDECFC9CF39
:101BF0002091210225FD21C02091220223FFD5CF73
:101C000089E390E0D2CF2091210226FFCECF8AE255
:101C100090E008952091210226FFC7CF81E390E054
:101C2000089583EE90E0089582EE90E0089580EEAE
:101C300090E0089586EE90E0089585E390E00895A1
:101C40009091210292FF06C0282F28712830F9F4C4
:101C5000877F846093FF06C0282F28712831F1F414
:101C6000877E84612091220220FF06C0382F3871C0
:101C70003830D9F4877F816021FF06C0282F287172
:101C80002831D1F4877E816194FD877E0895282FC5
:101C900024712430F9F68B7F8860DCCF282F2471E3
:101CA000243101F78B7E8861DDCF382F31713130DF
:101CB00019F78E7F8860E0CF282F2171213121F71D
:101CC0008E7E8861E1CF10921D0210921E0210924A
:101CD0001F02109220020895CF92DF92EF92FF929E
:101CE0006B017C010E946B1081110EC00E94211CAF
:101CF000C61AD70AE80AF90AC0921D02D0921E023B
:101D0000E0921F02F0922002FF90EF90DF90CF90C0
:101D100008950F931F930E946B10882329F00E944F
:101D2000211C1F910F9108950E94211C00911D02FA
:101D300010911E0220911F0230912002600F711F2E
:101D4000821F931FEECF80E0089508950E94190B23
:101D5000811102C00E94C20B0E94240B8093D0010B
:101D60000E942E0B90932202809321020E94A50EC6
:101D70000E94290B90E00E94200680916C019091B6
:101D80006D010E943E06089508950E94C40E0895B4
:101D900008950E94C80E0895E82FF0E0E25DFD4F1F
:101DA00080810895089580EA8A95F1F7089500C02A
:101DB00008950E94D30E089508950E94DC0E0895A0
:101DC000A5E0B0E0E6EEFEE00C9423230E946B1049
:101DD000F82E60913802882309F440C085E0E82E8F
:101DE0008E010F5F1F4FF8018E2D11928A95E9F732
:101DF000862F90E0B801825D9D4F0E94A810882335
:101E0000B9F08091230290E045E050E0B801825D96
:101E10009D4F0E944E2321E02093D101892B91F404
:101E2000F12C0E9437028F2D2596E6E00C943F237B
:101E30008091D1018823A1F3F8011192EA94E9F786
:101E40001092D101A0912302B0E0A25DBD4F85E0C8
:101E5000F80101900D928A95E1F7E3CF70E0625DA1
:101E60007D4F8091230290E0825D9D4F0E942F1153
:101E70000E94DD0ED8CFF894E82FE295EF70F0E0E5
:101E800031A1282F2F7081E090E001C0880F2A95A2
:101E9000EAF7982F9095932391A392A1892B82A37F
:101EA00078940895CF93DF93CBE3D1E089918F3F6E
:101EB00011F00E943B0F81E0C034D807B9F7C5E3A9
:101EC000D1E089918F3F11F00E943B0F81E0CB332D
:101ED000D807B9F7DF91CF910895B0E0A0E0E3E72C
:101EE000FFE00C942123EC01D62E062F10E0C80150
:101EF000855C9E4F7C01FC0180818F3F09F445C0C9
:101F0000F894E82FE295EF70F0E091A18F7021E056
:101F100030E001C0220F8A95EAF7892F822B81A336
:101F200082A12095282322A378940E94D70EE5E36E
:101F3000F1E04BE351E031E0C12C21912F3F51F111
:101F4000A22FA295AF70B0E090968C9190E02F7088
:101F500002C0959587952A95E2F780FD1BC0832FD7
:101F6000C82A330F4E175F0741F7F70180818F3F73
:101F700011F00E943B0F61E0C11001C060E08D2DA7
:101F80000E94D90EC00FD11FC882CDB7DEB7E8E0DE
:101F90000C943D2380E0E4CF809102018091020106
:101FA00095E0811190E09093380285E0891B809341
:101FB00023020E94520F8AE0EEE2F2E0DF01982F46
:101FC0001D929A95E9F7E4E2F2E0DF011D928A950D
:101FD000E9F785E00E942D100E9434020895AAE0DE
:101FE000B0E0E5EFFFE00C9424238E010F5F1F4F5C
:101FF0008AE0F80111928A95E9F7F12C6F2DC8015A
:102000000E946D0FF394F5E0FF12F8CF4AE050E024
:10201000B80184E292E00E944E2321E0009709F487
:1020200020E0892B41F08AE0F801A4E2B2E00190BF
:102030000D928A95E1F76091380270E0625D7D4F04
:1020400045E084E292E00E942E10182F0E94E00EDC
:10205000812B2A96E5E00C9440230895CF92DF92DD
:10206000EF92FF920F931F93CF936C017B01042F8C
:10207000222349F081E08093D4010E94151C9093A3
:10208000D3018093D201C091D401C1110AC0C0E034
:102090008C2FCF911F910F91FF90EF90DF90CF90F9
:1020A00008958091D2019091D3010E942D1C059733
:1020B00070F310E0A801B601C7010E944E23892BDE
:1020C00041F0A801B601C7010E945B231092D40120
:1020D000DFCFC0E0FBCF8091D701811107C00E9404
:1020E000F022882351F081E08093D70181E0909124
:1020F000D701913009F080E0089582E08093D70104
:102100000E94EB22F3CF0E946B1008950E9483106F
:10211000809302018091020166E0882349F080E00B
:102120000E946B130E946B1081110E94DE100895B3
:1021300086E0F6CF0E946B10811102C00E94E11070
:10214000089581E09091D8019A3008F080E00895D8
:102150000F931F93CF93DF93EC018B018091D801F4
:102160008A30B8F4B801CE010E942C11C82F811119
:1021700022C08091D8018F3FB9F40E94151C909322
:10218000D6018093D5018C2FDF91CF911F910F91B4
:1021900008958091D5019091D6010E942D1C843F15
:1021A000914000F7C0E0EFCF8F5F8093D8018A3075
:1021B00020F7C1E0E8CF1092D801E5CF0E94641962
:1021C00008950E9467190895B0E0A0E0EAEEF0E1FA
:1021D0000C9422237901C82F880FDD0B411551057E
:1021E000A9F0FE0193E0EE0FFF1F9A95E1F7ED5F76
:1021F000FE4F8181928187529E4F208130E04217AD
:10220000530708F49A01A9010E945B23CE010E94A2
:10221000501AD82E8823D1F001151105B9F083E0AA
:10222000CC0FDD1F8A95E1F7FE01ED5FFE4F438184
:1022300050E00417150708F4A801CD5FDE4F6C814C
:102240007D8167527E4FC7010E945B238D2DCDB7E4
:10225000DEB7E7E00C943E230E94591208950E94D5
:102260007A120895A4E0B0E0E8E3F1E10C942523AC
:102270006091F8017091F9018091FA019091FB0150
:102280000E943C1C11E0643671058105910518F12E
:102290000E94890E6E5F7F4F8F4F9F4F69837A83B5
:1022A0008B839C8310E000E030E020E044E050E0CD
:1022B000BE016F5F7F4F82E00E94E410182F8823D9
:1022C00051F00E94211C6093F8017093F9018093F2
:1022D000FA019093FB01812F2496E4E00C944123B2
:1022E000B0E0A0E0E6E7F1E10C941F237C015B0184
:1022F0006A010E94A11001E010E0882311F00AE0B9
:1023000010E0C1E0D0E0B501C701F60109958111E7
:1023100004C021960C171D072CF4CDB7DEB7EAE0F8
:102320000C943B23CC9F9001CD9F300D300D112498
:1023300090E080E045E34A95F1F7000001968217AE
:102340009307C1F7E0CFA8E0B0E0E9EAF1E10C942F
:102350002523CE0101960E94C21518856091FC01CB
:102360007091FD018091FE019091FF010E943C1C43
:10237000643671058105910510F41123C1F010E058
:1023800000E030E020E048E050E0BE016F5F7F4FAA
:1023900083E00E94E410882369F00E94211C60936E
:1023A000FC017093FD018093FE019093FF010E9458
:1023B000BF1581E02896E4E00C944123A6E0B0E04C
:1023C000E4EEF1E10C941F237B01C0904001D0901A
:1023D000410101E010E09E012A5F3F4F50E040E0E4
:1023E00070E060E080E00E94E410182F882309F478
:1023F00048C056018FEFA81AB80A6091F401709195
:10240000F5018091F6019091F7010E943C1C643621
:1024100071058105910568F105E010E09E012F5FCF
:102420003F4F50E040E070E060E081E00E94E41047
:10243000D82E65E070E0C5010E94A51611E09E81CE
:10244000981310E01D2141F10E94211C6093F401BA
:102450007093F5018093F6019093F70185E0FE01FA
:102460003196AFEEB1E001900D928A95E1F711E05F
:1024700013C065E070E0C5010E94A5169E81891316
:10248000CBCF85E0F6013196DE01119601900D92D9
:102490008A95E1F71111E2CF85E0EFEEF1E0D70187
:1024A00001900D928A95E1F7812F2696EAE00C942F
:1024B0003B230F931F93CF93DF93EC018B014EEDE2
:1024C00051E10E947011811106C080E0DF91CF912F
:1024D0001F910F91089542E351E1B801CE010E948E
:1024E0007011882391F343EA51E1B801CE010E94B3
:1024F0007011ECCF0F931F93CF93DF93C0914001E6
:10250000D0914101CE01019625E0FB01DC01019053
:102510000D922A95E1F765E070E00E94A516888388
:102520006E817F81888599850091EB011091EC0186
:102530002091ED013091EE0160177107820793073A
:1025400051F06093EB017093EC018093ED01909357
:10255000EE010E946C0E8989882331F060E0CE0183
:102560000A960E94D515198ADF91CF911F910F917C
:1025700008950E94D81D0E94FF0B0E94E51D08953A
:102580000E94EA1D0E94120C0E94041E08950E94DF
:10259000AE1B0E94BE1D0E94E70B0E94B9120E9452
:1025A000C0120E94F50BFBCFEF92FF920F931F9387
:1025B000CF93DF93EB01E82FD1110EC0442321F01C
:1025C000F0E0E456FE4FE4916E2F7E2F8E2FCDB7B4
:1025D000DEB7E6E00C943F230D2F10E0282F30E00B
:1025E000442329F024563E4FF901249130E0F6E0CF
:1025F000CF9FC0011124EFEFF0E0BF010E94FD2248
:10260000AB018C2F90E0880F991FA5E5A49FB00126
:10261000A59F700D1124861B970B982F990F980F6B
:10262000BF01601B710B629FD001639FB00D729F51
:10263000B00D11248B2F9D9FB0011124672F772798
:10264000EF01C61BD70BBE01629FE001639FD00D57
:10265000729FD00D11247F01E91AF108E09EB001AC
:10266000E19E700DF09E700D1124672F7727E61BF9
:10267000F70BE29F8001E39F100DF29F100D1124D4
:10268000E12F722F4230510599F048F44115510560
:1026900069F04130510581F0EB2F8D2F07C0443098
:1026A000510569F080F046305105B1F76E2F8FCF9C
:1026B000E22F7B2F812FFACFE22F7D2FF7CFEB2F49
:1026C000822F712FF3CF7B2F822FED2FEFCF41E0A1
:1026D0000E94D4120895E3E2F1E0808361830895BB
:1026E0000E9467130895CF93DF93762FE901682F37
:1026F000842F0E947013798368838A83DF91CF913E
:10270000089580913902982F9E7F39F48091390283
:10271000817082608093390208958430B8F70895FB
:1027200088E090E00E946C230895CF92DF92EF92B0
:10273000FF926B017C010E948113B701A60188E022
:1027400090E00E948A23FF90EF90DF90CF90089551
:10275000E9E3F2E083E080838EEB81838FEF828375
:1027600083831482A3E0B2E012968C911297836067
:1027700012968C9360817181828193810E9495135E
:10278000089590913D02933018F49F5F90933D021D
:10279000882351F06091390270913A0280913B0296
:1027A00090913C020E949513089581E00E94C1130C
:1027B000089590913D02992319F0915090933D0214
:1027C000882351F06091390270913A0280913B0266
:1027D00090913C020E949513089581E00E94D913C4
:1027E000089570E00E947816089560912401809108
:1027F000390280FF0BC08091230123E0829FC0013A
:102800001124825C9D4F0E94F1130895809125014F
:102810009091260123E0829FF0011124E25CFD4F9C
:10282000891748F71182108212828F5F3396F8CF92
:10283000E9E3F2E080818E7F808360817181828113
:1028400093810E949513E3E0F2E0828181608283AC
:102850002FEF80E792E0215080409040E1F700C0E8
:1028600000000E94F5130895E9E3F2E080818E7F75
:102870008083E3E0F2E08281816082832FEF80E752
:1028800092E0215080409040E1F700C000000E949B
:10289000F51308958091010281110AC081E08093AF
:1028A0000102809139028170809300020E943414E9
:1028B00008959091390290FF0EC0909125012091CA
:1028C000260133E0939FF0011124E25CFD4F921743
:1028D00018F00E94F51308958183608342839F5FFF
:1028E0003396F5CFA3E0B0E0E8E7F4E10C942323BE
:1028F000F82E062F142FE22E8091390280FF39C066
:10290000E82FE695F0E0EE5BFE4F90819093030296
:102910008E7F823059F49E012F5F3F4F8F2D0E9492
:1029200073134B8169818A810E94591480913A0204
:102930008F1108C080913B02801304C080913C023B
:10294000811729F080910502826080930502F09240
:102950003A0200933B0210933C02EE2051F060914A
:10296000390270913A0280913B0290913C020E94A0
:1029700095132396E6E00C943F23E9E3F2E091817E
:10298000282F438162818AE0890F0E947214089582
:1029900081E00E94BD140895E9E3F2E09181282FBF
:1029A0004381628186EF890F0E947214089581E04D
:1029B0000E94CC140895E9E3F2E0628121E1620F04
:1029C00008F46FEF282F438181810E9472140895CB
:1029D00081E00E94DB140895E9E3F2E0628121E1E5
:1029E000621B08F460E0282F438181810E947214E9
:1029F000089581E00E94EC140895E9E3F2E0438138
:102A000021E1420F08F44FEF282F628181810E945B
:102A10007214089581E00E94FD140895E9E3F2E044
:102A2000438121E1421B08F440E0282F628181812B
:102A30000E947214089581E00E940E15089520E00E
:102A40000E94721408958091390280FF1DC0817028
:102A50008260809339028091050281608093050233
:102A6000662351F06091390270913A0280913B02E5
:102A700090913C020E94951340913C0260913B0270
:102A800080913A020E941F150895682F81E00E94EC
:102A90002315089581E00E9445150895682F9091AF
:102AA000390296958FEF890F09F481E00E94231572
:102AB000089581E00E944E15089561E00E9423155B
:102AC0000895E9E3F2E080818160808386950E9429
:102AD0005D1508958091390280FF03C00E9418148B
:102AE00008950E946115089560E00E9423150895DD
:102AF00080910202811131C00E94190B811104C022
:102B00000E94C20B0E94A8130E9490136093390286
:102B100070933A0280933B0290933C0280910502AD
:102B20008360809305026E7F61F40E94A8130E9467
:102B300090136093390270933A0280933B02909312
:102B40003C020E9481138091390280FF03C0869568
:102B50000E94741581E0809302020895E9E3F2E097
:102B600080818160808386950E94741508951092FB
:102B700001028091000281110E94AE150895109209
:102B80000502089525E0E9E3F2E0DC0101900D92F1
:102B90002A95E1F720910302309104024091050249
:102BA000FC0125833683478308951F93CF93DF93DA
:102BB000EC01162F8F8180FF0CC0888180FF16C02A
:102BC00080913902816080933902888186950E94C4
:102BD00023158F8181FF06C0212F4B816A81898156
:102BE0000E947214DF91CF911F9108950E943414B6
:102BF000F0CFFA01811101C0FB01099508951F93DF
:102C0000CF93DF93EC01FB01128111114FC00E94A1
:102C1000320A8272CA3CFCE5DF0709F460C030F575
:102C2000C63CECE5DE0709F455C060F4C43C9CE505
:102C3000D90709F443C008F048C0C33CDC45D9F1CA
:102C400011E034C049EF54E168EE74E1C83C9CE502
:102C5000D907C1F148EC54E167ED74E1C93CDC45AA
:102C600088F148EE54E169EF74E12CC0CE3CFCE5FC
:102C7000DF07D1F1A0F44DEE53E165ED73E1CC3CFB
:102C8000ECE5DE07F9F04AE055E16BE175E1CD3C9A
:102C9000DC45C0F045ED53E16DEE73E113C0C73D77
:102CA0008CE5D80718F0CE35DD4551F6812FDF9140
:102CB000CF911F9108950E946A15F8CF49E555E11B
:102CC0006AE475E10E94F915F1CF4AE455E169E53E
:102CD00075E1F8CF47ED54E168EC74E1F3CF4BE1D7
:102CE00055E16AE075E1EECF81E00E945D15DECF2F
:102CF000539A4BB1477F5BB15860EFB7F8949B0193
:102D0000220F331F260F371F280F391F28173907A7
:102D100041F4EFBF8FE594E00197F1F700C00000A8
:102D20000895DC016D91CD0178E05BB9000000C031
:102D300067FF4BB9660F000000C000C000C04BB970
:102D400000C07A9591F7E2CF0895FC01680F791FD2
:102D50008FEF91E36E177F0709F408952191822781
:102D600028E030E087FF06C0880F8927215031090D
:102D7000C9F7F0CF880FFACFCF93DF93EC01FB01B7
:102D80008281882309F464C1C430FDE5DF07E0F5E2
:102D9000CB3F9CE5D90730F49E0122503C452431BD
:102DA0003105D8F50E942E0B9093220280932102C8
:102DB000C231ECE5DE0709F41FC108F06EC0C9306E
:102DC0008CE5D80709F4F2C008F03FC0C530ECE547
:102DD000DE0709F4DBC058F5C3308CE5D80709F4E9
:102DE000CDC008F0CFC0809121028160C230DC45A7
:102DF00009F4AEC080912102909122020E943C0B06
:102E00000E94CB0580E009C0C63AEDE5DE0751F22D
:102E100038F4C2369DE5D90729F2DF91CF910895A4
:102E20009E012E5A3D4523303105B8F7BBCF809126
:102E300021028062C730FCE5DF0709F489C008F48D
:102E4000B1C080912102806483C0CD309CE5D90758
:102E500009F4BAC070F4809121028E7FCB30FCE57A
:102E6000DF0709F475C008F4A7C0809121028D7FA7
:102E70006FC0CF309CE5D90709F4B6C008F4A8C0EC
:102E8000C031FCE5DF0709F4B3C0C131DC4509F00E
:102E9000B1CF809121028F7B5BC0C1159DE5D90721
:102EA00009F4B4C098F5CB3FFCE5DF0709F472C024
:102EB000B8F4C4319CE5D90709F4B6C008F4A2C03F
:102EC000C531DC4509F096CF8091210282FB99271C
:102ED00090F921E0922790FB82F990FB83F938C0AA
:102EE000CD3F8CE5D80709F477C008F457C0CE3F32
:102EF000ECE5DE0709F474C0809122028360CF3FC5
:102F0000DC4509F077CF8093220274CFC2368DE57D
:102F1000D80709F496C068F4C230EDE5DE0709F47D
:102F20008CC008F477C0C330DD4509F063CF80E082
:102F300085C0CE3A9DE5D907E9F068F49091210269
:102F4000892F8E7F90FF8160C63ADD4509F052CF10
:102F5000809321024FCFCF3A8DE5D80789F1C03B4E
:102F6000DD4509F047CF90912202892F877F93FF9B
:102F70008860C9CF809122028860C5CF80912102EC
:102F80008260E6CF809121028460E2CF80912102AD
:102F90008860DECF809122028160B5CF80912202CD
:102FA0008260B1CF809121028061D2CF0E94CB0597
:102FB000809121028068CCCF809121028C60C8CFA3
:102FC00080912202877F9FCF809121028B7FC0CF8B
:102FD00080912102877FBCCF809122028E7F93CF88
:102FE000809122028D7F8FCF809121028F7EB0CF82
:102FF000809121028F7DACCF0E94CB058091210270
:103000008F77A6CF80912102837FA2CF8091220269
:103010008C7F79CF80912202982F909591708E7F2E
:10302000892B90FB81F96FCF0E94CB0590912102F3
:10303000892F97FB87F980588BCF81E00E94C50BC1
:10304000D9CE90912102892F8F7E94FF806180CF0D
:1030500081E0E3CECF93DF93EB0186319C4511F500
:103060000E94320A9A81992399F08A7A91E009F4B0
:1030700090E090930602811109C089E20E940A0A39
:103080000E94730A80E0DF91CF91089585E3F6CF27
:1030900080910602811104C089E20E94120AF0CFD9
:1030A00085E3FBCF81E0EFCF0F931F93CF93DF93A7
:1030B000C42FD22FFC0182818823C9F040930902DA
:1030C0000E94151C909308028093070280E28C0FE7
:1030D000883040F4C77081E001C0880FCA95EAF7D4
:1030E0000E94A003DF91CF911F910F91089510913D
:1030F0000902141332C080910702909108020E94C5
:103100002D1C8436910548F5C0E2CD0F1D17B9F08E
:1031100080E2810F883040F4177081E001C0880F91
:103120001A95EAF70E94A703C83048F481E09D2F62
:10313000977001C0880F9A95EAF70E94A003802F2C
:103140000E949703C83070F6D77081E001C0880FE5
:10315000DA95EAF70E94A703C5CF80E28C0F88308A
:1031600008F6C77081E001C0880FCA95EAF7F2CF70
:103170000F939C01CB01243F4CE5340759F1A8F48F
:10318000293DFCE53F0701F12A3D4CE53407D1F12B
:10319000283D3C4591F406E221EE41EE68ED7CE5E8
:1031A0000E94541880E00F910895263FFCE53F07E8
:1031B000E9F0B0F0273F3C45F9F0FC01828188231B
:1031C00039F110920902EFCF07E225EE45EE69EDE5
:1031D0007CE5E6CF06E221EE40EE64EF7CE5E0CF51
:1031E00007E225EE44EE65EF7CE5DACF06E221EE5C
:1031F00042EE66EF7CE5D4CF07E225EE46EE67EFC0
:103200007CE5CECF08E221E045EE6AED7CE5C8CF53
:1032100081E0C9CF8EE14A9B02C08150E1F74A9B11
:10322000FECF08955A9880E28A95F1F75A9A089548
:10323000FC013BE03A95F1F798E020E080E031E0D6
:1032400040E14A95F1F7880F4A9B02C0816023272D
:1032500042E04A95F1F7000040E14A95F1F79150BC
:1032600079F790E19A95F1F799B132E03A95F1F753
:10327000000040E14A95F1F792FB992790F99227D7
:103280002081920F90830895A1E0B0E0EAE4F9E193
:103290000C94232319828C017C01E60EF11C0E157F
:1032A0001F0541F481E09981911180E02196E6E0CB
:1032B0000C943F230E940A19CE0101960E9418190E
:1032C000F80181938F01EBCF529A5A9A0895529840
:1032D0005A9AEA9AE9E6F0E080818F7C808308952B
:1032E0006150770B91E001C0990F6A95EAF720E0F1
:1032F00031E0911108C0222391F05A9A80E28A9518
:10330000F1F75A980895492F482339F05A9A2327FC
:1033100040E24A95F1F79695ECCF5A98F9CF5A9832
:10332000EDCFFF920F931F93CF93DF93EC018C01AE
:10333000060F111DC017D10729F4CDB7DEB7E5E0A0
:103340000C944023F9900E94121968E08F2D0E947E
:103350007019F0CF1F920F920FB60F9211240F9396
:103360001F932F933F934F935F936F937F938F930D
:103370009F93AF93BF93EF93FF93CF93DF930F92FE
:10338000CDB7DEB719820E940A19CE0101960E94BC
:103390001819082F069506950695282F2295257051
:1033A000902F9570290F922F937026952695920F46
:1033B000982797708981982B09F05CC0053008F038
:1033C00059C080E18A95F1F75A9A529A82E08A951B
:1033D000F1F700C05A9888E0089F80011124D801B5
:1033E000AD5FBE4F1696ED91FC9117973097A9F0FF
:1033F000609140017091410114962D913C91159777
:10340000260F371F11968D919C911297680F791F87
:1034100013964C9113978C910995F801ED5FFE4F2F
:103420006381662351F020914001309141018481F4
:103430009581820F931F0E9491190E94121980E1B9
:103440008A95F1F75A9852985A9A80E18A95F1F73D
:10345000F801ED5FFE4F6081662351F0209140013D
:103460003091410181819281820F931F0E94441902
:103470000E940A190F90DF91CF91FF91EF91BF91B8
:10348000AF919F918F917F916F915F914F913F91FC
:103490002F911F910F910F900FBE0F901F901895B5
:1034A0000F931F93CF93DF93EC0105970CF04CC063
:1034B000F894529A5A9885E08A95F1F700009C2F6B
:1034C000969595708C2F8570980F892F837096959F
:1034D000969523E0CC0FDD1F2A95E1F7980F8E011A
:1034E000092B0E94121900C068E0802F0E947019F9
:1034F00080E18A95F1F752985A9A4A9B1EC087E05C
:1035000090E04A991CC0FE01ED5FFE4F6381662387
:10351000F9F0209140013091410184819581820F21
:10352000931F0E944419811113C0529A5A9A789499
:10353000DF91CF911F910F91089500C0DECF0197C9
:1035400029F4529A5A9A789480E0F2CF00C0D9CFE9
:103550000E940A1980E28A95F1F75A98529A80E1FE
:103560008A95F1F7CD5FDE4F6881662351F0209197
:1035700040013091410189819A81820F931F0E94FD
:1035800091190E941219789481E0D2CF909345014D
:103590008093440108959093100280930F02089540
:1035A0000E946B10811103C080910A020895E0917E
:1035B0000F02F0911002309729F00190F081E02D78
:1035C0000995089580E00895E0910F02F0911002AE
:1035D000309721F00280F381E02D09950895209124
:1035E0000D0230910E022817390771F090930E02E8
:1035F00080930D02E0910F02F0911002309721F0BC
:103600000680F781E02D0995089520910B023091F5
:103610000C022817390771F090930C0280930B026B
:10362000E0910F02F0911002309721F00084F185B3
:10363000E02D099508959C012E5F3F4FAC01485F36
:103640005F4F80E02417350709F40895F90191913F
:103650009F019923B9F38F5FF5CF662349F0FC01F1
:10366000329608962191261729F0E817F907D1F725
:1036700080E0089581E008959C01FC0132969FEF5F
:1036800080E04191461751F09F3F19F4411101C06C
:10369000982F8F5F8630A9F79F3F09F40895290F6F
:1036A000311D97FD3A95F90162830895FC01329628
:1036B00008962191261303C0DF0111971C92E81789
:1036C000F907B9F708950E943C1B08950E94561B04
:1036D0000895029626E0FC0111922A95E9F70895D3
:1036E00008950E94701B0895811106C081E08093A7
:1036F00011020E94711B089582E0F9CF83E080934C
:1037000011020E94711B08950E94741B089581E0AC
:10371000809311020E94711B08950E94871B0895D7
:10372000089508950E94911B0895089508950E9498
:10373000901B0895CF930E94951B0E94EF0F0E944B
:10374000961BC0E08C2F0E94CC0E811105C0CF5F6C
:10375000CA30C1F7CF91089581E0FCCF85B780686A
:1037600085BF85B7806885BF08951F921FB61F92D9
:1037700011248F939F93AF93BF9380911202811175
:1037800013C08091620290916302A0916402B09193
:1037900065024196A11DB11D809362029093630260
:1037A000A0936402B0936502BF91AF919F918F91F6
:1037B0001F901FBE1F90189580916A02843031F1CE
:1037C0000E94AD021092120288E190E020E40FB650
:1037D000F894A895809360000FBE2093600083B793
:1037E000817F846083BF83B7816083BF789488952D
:1037F00083B78E7F83BF0FB6F894A8958091600041
:10380000886180936000109260000FBE08950E944E
:10381000CB050E94B402089582E084BD93E095BD7B
:103820009AEF97BD80936E0008952FB7F89480911A
:10383000620290916302A0916402B09165022FBF71
:1038400008952FB7F894609162027091630280919D
:103850006402909165022FBF08959C014FB7F894C0
:103860008091620290916302A0916402B09165021E
:103870004FBF821B930B0895CF92DF92EF92FF927E
:103880002FB7F894C0906202D0906302E090640277
:10389000F09065022FBFA7019601261B370B480B3E
:1038A000590BCA01B901FF90EF90DF90CF900895B6
:1038B00078941F921FB61F9211248F939F93AF93FA
:1038C000BF938091620290916302A0916402B091D3
:1038D00065020196A11DB11D80936202909363025F
:1038E000A0936402B0936502BF91AF919F918F91B5
:1038F0001F901FBE1F90189587E797E790930108C8
:103900008093000888E19AE00FB6F894A895809318
:1039100060000FBE90936000FFCF88E19AE00FB681
:10392000F894A895809360000FBE90936000FFCF3D
:1039300080911B02089508950895CF93DF93EC01C1
:1039400081E08093E9008FEF9091E800815095FD30
:1039500006C095ED9A95F1F700008111F5CF8091A1
:10396000E80085FF14C050E040E068E070E0CE0160
:103970000E94641E8091E8008E778093E80088E0C2
:10398000FE01A3E1B2E001900D928A95E1F7DF918B
:10399000CF9108950895089580916902811109C019
:1039A0000E94F41F0E9451208091E2008460809365
:1039B000E20008951092690208950E94871B0895FD
:1039C0006091660281E0611101C080E00E947E1B6F
:1039D000089590916A0281E0943009F080E060914E
:1039E00066020E94841B089542E061EC81E00E941F
:1039F000701F90916A0281E0943009F080E060913C
:103A000066020E94741B089580916C02833009F451
:103A100061C030F48130D1F1823009F49EC0089544
:103A20008A3009F48AC08B3009F46FC0893009F0FC
:103A300050C080916B02813209F04BC080916F02BF
:103A400090917002892B09F044C08091E800877F33
:103A50008093E8008091E80082FF37C09091F300E6
:103A60008091F200029731F48091F100813011F0E1
:103A7000863021F48091F10080931B028091E80050
:103A80008B778093E8000E94A41F23C080916B0273
:103A9000813AF9F48091E800877F8093E800809173
:103AA0006F0290917002892B61F468E083E192E0EB
:103AB00070E00E94B31E8091E8008B778093E8004D
:103AC000089560E090E080E0F3CF80916A02811178
:103AD000C1CF089580916B02813AD9F780916F022E
:103AE00090917002892BA9F78091E800877F8093DD
:103AF000E8008091E80080FFFCCF80913401809342
:103B0000F1008091E8008E77BCCF80916B0281320A
:103B100001F780916F0290917002892BD1F680910C
:103B2000E800877F8093E8000E94A41F80916D02C7
:103B3000809334010E94CB05089580916B028132FD
:103B400041F68091E800877F8093E8000E94A41FDF
:103B500080916E0280931C02089580916B02813ADD
:103B600009F0B7CF8091E800877F8093E8008091CB
:103B7000E80080FFFCCF80911C02C1CF84B7877F13
:103B800084BF0FB6F894A8958091600088618093F7
:103B90006000109260000FBE80E890E00FB6F894CD
:103BA00080936100909361000FBE0E948D1B089569
:103BB0000E94F41F0E945120E2EEF0E080818460B8
:103BC000808378940E94D022089588E291E00E9438
:103BD000CB1A089580916A02853031F480916A028F
:103BE000853019F00E94071C08950E94DC1B80910B
:103BF0006802882399F30E949A1B882379F30E9414
:103C00004E1E0E94CB05EACF08950E94081E08951B
:103C1000292F332723303105C9F058F421303105DD
:103C200099F122303105A9F190E080E030E020E008
:103C30001DC02132310509F122323105A9F780E496
:103C400090E026EF32E0672B79F710C0992781309A
:103C5000910581F0009729F0029731F7ECE9F2E045
:103C600002C0EEEBF2E0849190E09F01FA01318313
:103C700020830895ECEAF2E0F6CF89E090E024EDAD
:103C800032E0672B89F6F2CF82E190E024EE32E059
:103C9000EDCF82E290E022EC32E0E8CF80E189BD16
:103CA00082E189BD09B400FEFDCF8091D8008F7DEF
:103CB0008093D8008091E00082608093E000809142
:103CC000E00081FDFCCF0895AF92BF92CF92DF92CA
:103CD000FF920F931F93CF93DF936C01EB018A0147
:103CE0000E94C31FF82E811123C00115110539F060
:103CF000F80180819181C81BD90BC80ED91EB12C47
:103D0000A12C2097A9F08091E80085FD22C0809128
:103D1000E8008E778093E80001151105A1F0F80105
:103D200080819181A80EB91EB182A08285E0F82E13
:103D30008F2DDF91CF911F910F91FF90DF90CF904A
:103D4000BF90AF9008950E94C31F8823D1F2F82E30
:103D5000EFCFF60181916F018093F1002197FFEF82
:103D6000AF1ABF0ACECFFC0180917102909172020E
:103D700086179707A0F06115710529F49091E80066
:103D80009E779093E80090E06115710551F49111D0
:103D900008C08091E80082FF34C080E00895BC0133
:103DA000F2CF80916A028823C1F18530C1F1809100
:103DB000E80083FD30C08091E80082FDEACF809169
:103DC000E80080FFE1CF8091F3002091F200382FCE
:103DD0006115710519F02830310558F091E028304F
:103DE000310509F090E02091E8002E772093E8005B
:103DF000CBCF81918093F100615071092F5F3F4FCC
:103E0000E7CF80916A02882341F0853041F08091AC
:103E1000E80083FFBECF81E0089582E0089583E04B
:103E20000895FC01809171029091720286179707A4
:103E3000A0F06115710529F48091E8008E778093D8
:103E4000E80090E06115710551F4911108C080916E
:103E5000E80082FF35C080E00895BC01F2CF809178
:103E60006A028823C9F18530C9F18091E80083FD99
:103E700031C08091E80082FDEACF8091E80080FFA8
:103E8000E1CF8091F3002091F200382F6115710588
:103E900019F02830310558F091E02830310509F04B
:103EA00090E08091E8008E778093E800CBCF8491FA
:103EB0008093F1003196615071092F5F3F4FE6CF3B
:103EC00080916A02882341F0853041F08091E800BA
:103ED00083FFBDCF81E0089582E0089583E00895D7
:103EE000982F973028F08F708093E90081E0089533
:103EF0009093E900242F762F50E0981731F07091BD
:103F0000EC002091ED005091F00021FD02C09F5F78
:103F1000E8CF3091EB003E7F3093EB003091ED0025
:103F20003D7F3093ED003091EB0031603093EB003A
:103F30007093EC002093ED005093F0002091EE0080
:103F400027FDE5CF80E0089580916B0287FF13C0C5
:103F50008091E80082FF06C08091E8008B77809313
:103F6000E80004C080916A028111F2CF0895809127
:103F70006A028823D9F38091E80080FFF8CF80910E
:103F8000E8008E77ECCF2091E4003091E50095E6D3
:103F9000A9012091EC00822F817020FF06C0809142
:103FA000E80080FF06C080E008952091E80022FD2F
:103FB0001AC080916A02882389F0853089F0809147
:103FC000EB0085FD0FC02091E4003091E500421721
:103FD0005307F9F29150E1F684E0089582E00895E4
:103FE00083E0089581E008950E9463200E946B2081
:103FF000E0EEF0E0808181608083E8EDF0E0808198
:104000008F77808319BCA7EDB0E08C918E7F8C9365
:1040100080818F7E80831092690208950F931F9391
:10402000CF93DF930E9463200E946B20C8EDD0E005
:1040300088818F77888388818068888388818F7D55
:10404000888319BC10926A0210926602109268026C
:104050001092670200EE10E0F80180818B7F808370
:1040600088818160888342E060E080E00E94701F68
:10407000E1EEF0E080818E7F8083E2EEF0E08081EF
:1040800081608083808188608083F80180818E7F59
:104090008083888180618883DF91CF911F910F9108
:1040A0000895E8EDF0E080818F7E8083E7EDF0E019
:1040B00080818160808384E082BF81E08093690297
:1040C0000E940E200895E8EDF0E080818E7F8083CD
:1040D0001092E20008951092DA001092E100089523
:1040E0001F920F920FB60F9211242F933F934F936D
:1040F0005F936F937F938F939F93AF93BF93EF9350
:10410000FF938091E10082FF0BC08091E20082FF6B
:1041100007C08091E1008B7F8093E1000E94CF2255
:104120008091DA0080FF19C08091D80080FF15C00F
:104130008091DA008E7F8093DA008091D90080FF31
:1041400096C080E189BD82E189BD09B400FEFDCF42
:1041500081E080936A020E94CC1C8091E10080FF84
:1041600019C08091E20080FF15C08091E2008E7F2F
:104170008093E2008091E20080618093E200809170
:10418000D80080628093D80019BC85E080936A02D1
:104190000E94E01C8091E10084FF2BC08091E2002E
:1041A00084FF27C080E189BD82E189BD89B5982F50
:1041B000917080FFFBCF8091D8008F7D8093D800D5
:1041C0008091E1008F7E8093E1008091E2008F7EFC
:1041D0008093E2008091E20081608093E200809110
:1041E0006602882309F449C084E080936A020E9431
:1041F000E91C8091E10083FF29C08091E20083FFE8
:1042000025C08091E100877F8093E10082E0809368
:104210006A02109266028091E1008E7F8093E10035
:104220008091E2008E7F8093E2008091E2008061C5
:104230008093E20042E060E080E00E94701F809185
:10424000F00088608093F0000E94DD1CFF91EF91E8
:10425000BF91AF919F918F917F916F915F914F919E
:104260003F912F910F900FBE0F901F90189519BC82
:1042700010926A020E94DA1C70CF8091E30087FDE1
:1042800093E090936A02B3CF1F920F920FB60F92F2
:1042900011242F933F934F935F936F937F938F934B
:1042A0009F93AF93BF93CF93DF93EF93FF93D091FF
:1042B000E900DF708091EC00C82FC17080FDC0E87C
:1042C0001092E9008091F000877F8093F00078944D
:1042D0000E9488211092E9008091F000886080930C
:1042E000F000CD2BCF70C093E900FF91EF91DF91EB
:1042F000CF91BF91AF919F918F917F916F915F917E
:104300004F913F912F910F900FBE0F901F901895D6
:10431000AAE2B0E0EEE8F1E20C9426238BE692E00C
:104320002091F100FC012193CF01F2E083379F0738
:10433000B9F70E94041D8091E80083FF1EC180919F
:104340006B0290916C029A3008F017C1E92FF0E0EF
:10435000E654FC4D0C941123803899F0823809F012
:104360000CC180916F028F70873008F006C1809376
:10437000E9008091EB0085FB882780F91092E90025
:1043800006C08091670290916802911182609091BD
:10439000E800977F9093E8008093F1001092F1007D
:1043A0008091E8008E77E5C0882309F4D3C082307D
:1043B00009F0E3C080916D028111D6C080916F0237
:1043C0008F702FEF280F263008F0D7C08093E900B8
:1043D0002091EB0020FFC8C0933031F48091EB00B6
:1043E00080628093EB00C0C09091EB00906190934D
:1043F000EB0021E030E001C0220F8A95EAF720931C
:10440000EA001092EA008091EB008860EACF811107
:10441000B4C010916D021F778091E3008078812BEA
:104420008093E3008091E800877F8093E8000E94FA
:10443000A41F8091E80080FFFCCF8091E30080689A
:104440008093E30082E0111183E080936A0295C0BB
:104450008058823008F091C080916D0290916E0278
:104460008C3D23E09207A1F583E08A838AE2898369
:104470004FB7F894DE01139620E03EE051E2E32FBF
:10448000F0E050935700E49120FF03C0E295EF70F5
:104490003F5FEF708E2F90E0EA30C0F0C7968D93AB
:1044A0009D932F5F243159F74FBF8091E800877F9C
:1044B0008093E8006AE270E0CE0101960E94B31E8C
:1044C0008091E8008B778093E80057C0C096E7CFD3
:1044D00060916F0270917002AE014F5F5F4F0E945A
:1044E000051EBC01892B09F448C09091E800977F14
:1044F0009093E80089819A810E94111FE1CF803852
:10450000E1F58091E800877F8093E8008091660262
:104510008093F10045CF811130C090916D029230AF
:1045200060F58091E800877F8093E80090936602B1
:104530000E94A41F80916602882311F084E005C0C8
:104540008091E30087FDFACF81E080936A020E94A8
:10455000F41C13C080916D02813079F481E09330B6
:1045600009F080E0809368021092E9008091E800F1
:10457000877F8093E8000E94A41F8091E80083FF5A
:104580000AC08091E800877F8093E8008091EB006B
:1045900080628093EB00AA96E3E00C944223089596
:1045A000CF9380916A028823A1F0C091E900CF7077
:1045B0009091EC00892F817090FD80E8C82B1092BB
:1045C000E9008091E80083FD0E948821CF70C093AC
:1045D000E900CF9108950E94F41F10926A02089595
:1045E000E8EDF0E08081806180838AE18A95F1F7CF
:1045F00000C08091D90081700895AA1BBB1B51E1B6
:1046000007C0AA1FBB1FA617B70710F0A61BB70B42
:10461000881F991F5A95A9F780959095BC01CD01E7
:104620000895EE0FFF1F0590F491E02D09942F924D
:104630003F924F925F926F927F928F929F92AF9232
:10464000BF92CF92DF92EF92FF920F931F93CF937F
:10465000DF93CDB7DEB7CA1BDB0B0FB6F894DEBF16
:104660000FBECDBF09942A88398848885F846E843C
:104670007D848C849B84AA84B984C884DF80EE8086
:10468000FD800C811B81AA81B981CE0FD11D0FB68F
:10469000F894DEBF0FBECDBFED010895FB01DC0134
:1046A00004C08D910190801921F441505040C8F709
:1046B000881B990B0895FB01DC0102C001900D924B
:1046C00041505040D8F70895F999FECF92BD81BD71
:1046D000F89A992780B50895A6E1B0E044E050E04B
:1046E0000C949E23A8E1B0E042E050E00C949E239D
:1046F000262FF999FECF92BD81BDF89A019700B49B
:10470000021639F01FBA20BD0FB6F894FA9AF99A3A
:104710000FBE08950396272F0E9479230E947823C5
:10472000252F0E947923242F0C9479230196272F7B
:104730000E9479230C947823DC01CB01FC01F999C8
:10474000FECF06C0F2BDE1BDF89A319600B40D92DD
:1047500041505040B8F70895F894FFCFE903E903BA
:104760001A041A044904490449044904A704180511
:1047700027052705AC21D421BD22D421BD22072243
:084780002822BD227F228B22BA
:10478800B201010000000100000000000000050166
:104798000000000406000000000000080A000000F5
:1047A800000000000C000C0C981C9D1CCA1C9B1CD3
:1047B800CB1C9C1C01F6F7313332366697C634356C
:0447C800D901000112
:00000001FF
